:100000000C942A000C9436000C9434000C943400A8
:100010000C9434000C9434000C9434000C94340090
:100020000C9434000C9434000C9434000C94340080
:100030000C9434000C9434000C9434000C94340070
:100040000C9434000C9434000C9434000C94340060
:100050000C94340011241FBECFE5D8E0DEBFCDBF25
:100060000E9445000C9450000C9400001F920F92C7
:100070000FB60F9211248F938BB380958BBB8F910A
:100080000F900FBE0F901F9018958FEF8ABB1BBA71
:1000900011BA82BB80E48BBF82E085BF7894FFCF2A
:0400A000F894FFCF02
:00000001FF
