S00E0000656570726F6D2E737265638E
S11300000C942A000C943F000C943F000C943F0085
S11300100C943F000C943F000C943F000C943F0060
S11300200C943F000C943F000C943F000C943F0050
S11300300C943F000C943F000C943F000C943F0040
S11300400C943F000C943F000C943F000C943F0030
S11300500C943F0011241FBECFE5D8E0DEBFCDBF16
S113006010E0A0E6B0E0E2EFF2E002C005900D92ED
S1130070AA36B107D9F70E9410010C9477010C94A9
S11300800000C29A00C0C2980895CF93C82F662377
S113009011F0C09A01C0C098C198BB9ABC9ABD9A8D
S11300A0BE9AC698C598C498C398CC230CF4C69A33
S11300B0C6FDC59AC5FDC49AC4FDC39A0E944100F9
S11300C0C698C598C498C398C3FDC69AC2FDC59A7C
S11300D0C1FDC49AC0FDC39A0E944100C39AC49A48
S11300E0C59AC69ACF910895882311F0C09A01C089
S11300F0C098C19ABB98BC98BD98BE98C29A00C0DB
S1130100B39B02C080E101C080E0B4998062B599DC
S11301108064B6998068C29800C0C29A00C0B3993E
S11301208160B4998260B5998460B6998860C298F8
S1130130089580E00E9474008823DCF300C080E00E
S11301400E9474000895CF93C82F0E94990060E024
S11301508C2F0E944500CF91089581E00E94A30056
S11301600895CF93C82F0E949900CA3049F480346F
S113017010F080E001C080E480580E94A30004C015
S113018061E08C2F0E944500CF910895CF93DF93B7
S1130190EC012196FC018081882329F00E94B100A2
S11301A089918111FBCFDF91CF9108951F93CF9354
S11301B0DF93182FB89AB99ABA9ABB9ABC9ABD9A87
S11301C0BE9A80EA9FE00197F1F7C49AC39A0E940D
S11301D0410080EE94E00197F1F70E944100C0E1F4
S11301E0D0E0CE010197F1F70E944100CE010197C2
S11301F0F1F7C3980E9441002197F1F788E20E9429
S1130200A30088E00E94A3000E94AD0086E00E9443
S1130210A300812F0E94A300DF91CF911F91089525
S1130220CF93DF93CDB7DEB763970FB6F894DEBFF5
S11302300FBECDBF89E0E0E6F0E0DE01119601904B
S11302400D928A95E1F74AE050E060E070E0CE015B
S113025001960E9456018FE00E94D6004AE050E0C9
S113026060E070E0CE010A960E9446010E94AD0053
S1130270CE010A960E94C6002FE38DE093E0215040
S113028080409040E1F700C00000E8CFDC01CB01E2
S1130290FC01E199FECF06C0FFBBEEBBE09A3196AC
S11302A00DB20D9241505040B8F70895DC01A40FEF
S11302B0B51F4150504048F0CB01840F951F2E913B
S11302C00E94670141505040D0F70895262FE199CC
S11302D0FECF9FBB8EBBE09A01970DB2021631F0A0
S11302E02DBB0FB6F894E29AE19A0FBE0895F894E4
S10502F0FFCF3A
S10D02F26D6F68616D6D61640000BA
S9030000FC
