:040000000C942A0032
:100004000C9400000C9400000C9400000C9400006C
:100014000C9400000C9400000C9400000C9400005C
:100024000C9400000C9400000C9400000C9400004C
:100034000C9400000C9400000C9400000C9400003C
:100044000C9400000C9400000C9400000C9400002C
:10005400F894EE27ECBBF1E0FBBFEBBFE5BF8DE00E
:10006400A2E0BB27ED938A95E9F780E098E0A0E64B
:10007400ED930197E9F7EFE5EDBFE8E0EEBFC0E6E9
:10008400D2E00C94450000E010E0E0E0EABBEBBBFA
:10009400E0E4E7BBE0E0E8BBE4BBE5BBE1BBE2BB1B
:1000A400E3BFE2BFECBFEFBDEEBDEDBDECBDE7BD10
:1000B400E6BDEBBDEABDE9BDE8BDE2BDE5BDE4BD1D
:1000C400E3BDE9BFE5BFE4BFEAB9E0E8E8B9E0E0D1
:1000D400E0BFE6B9E0E4EDB9E0E0EEB9E6BFEFEF8A
:1000E400EABBAEE105D00E2F11270BBBFACFFFCF31
:1000F400AA93E881EFB9779BFECFEFB121960895DB
:00000001FF
