S00B00006C63642E73726563E6
S11300000C942A000C9434000C9434000C943400A6
S11300100C9434000C9434000C9434000C9434008C
S11300200C9434000C9434000C9434000C9434007C
S11300300C9434000C9434000C9434000C9434006C
S11300400C9434000C9434000C9434000C9434005C
S11300500C94340011241FBECFE5D8E0DEBFCDBF21
S11300600E94E0000C94E4000C940000C29A00C0CA
S1130070C2980895CF93C82F662311F0C09A01C087
S1130080C098C198BB9ABC9ABD9ABE9AC698C598A6
S1130090C498C398CC230CF4C69AC6FDC59AC5FD72
S11300A0C49AC4FDC39A0E943600C698C598C498E1
S11300B0C398C3FDC69AC2FDC59AC1FDC49AC0FDCA
S11300C0C39A0E943600C39AC49AC59AC69ACF911D
S11300D00895882311F0C09A01C0C098C19ABB98B2
S11300E0BC98BD98BE98C29A00C0B39B02C080E180
S11300F001C080E0B4998062B5998064B699806843
S1130100C29800C0C29A00C0B3998160B499826059
S1130110B5998460B6998860C298089580E00E9479
S113012069008823DCF300C080E00E946900089520
S1130130CF93C82F0E948E0060E08C2F0E943A005B
S1130140CF91089581E00E94980008951F93CF9362
S1130150DF93182FB89AB99ABA9ABB9ABC9ABD9AE7
S1130160BE9A80EA9FE00197F1F7C49AC39A0E946D
S1130170360080EE94E00197F1F70E943600C0E16A
S1130180D0E0CE010197F1F70E943600CE0101972D
S1130190F1F7C3980E9436002197F1F788E20E9494
S11301A0980088E00E9498000E94A20086E00E94C5
S11301B09800812F0E949800DF91CF911F9108959C
S10F01C08FE00E94A600FFCFF894FFCF50
S9030000FC
