S00E00006B65797061642E7372656398
S11300000C942A000C9447000C9447000C9447006D
S11300100C9447000C9447000C9447000C94470040
S11300200C9447000C9447000C9447000C94470030
S11300300C9447000C9447000C9447000C94470020
S11300400C9447000C9447000C9447000C94470010
S11300500C94470011241FBECFE5D8E0DEBFCDBF0E
S113006010E0A0E6B0E0EAE9F1E002C005900D92EC
S1130070A837B107D9F720E0A8E7B0E001C01D9286
S1130080AE37B207E1F70E94BD000C94CB000C948C
S113009000008AB388678ABB8AB3887F8ABB8BB324
S11300A087608BBB8BB387788BBB089599B39770AC
S11300B021E030E0973011F420E030E0C9010895E8
S11300C0CF93DF931092790010927800A1E0B0E012
S11300D02BB328672BBB3BB3409178005091790038
S11300E04D5F5F4FBD0102C0660F771F4A95E2F76F
S11300F0262F209523232BBB10927D0010927C0089
S1130100C0917800D0917900FE01EE0FFF1FEC0F33
S1130110FD1FEE0FFF1FE05AFF4F40E050E029B3F0
S113012030E0BD01042E02C0660F771F0A94E2F787
S11301302623372330937B0020937A00232B11F45A
S1130140808191814F5F5F4F50937D0040937C008D
S113015032964330510519F72196D0937900C09314
S1130160780024970CF4B4CF2BB327602BBB2BB3AC
S113017027782BBBDF91CF9108950E9449008FEF20
S113018084BB0E945600892B21F00E94600085BB2D
S10D0190F8CF15BAF6CFF894FFCFAC
S113019A010002000300040005000600070008002D
S10B01AA09000A0000000B002B
S9030000FC
