S01700004763634170706C69636174696F6E312E737265635B
S11300000C942A020C9447020C9447020C94470265
S11300100C9447020C9447020C9447020C94470238
S11300200C9447020C9447020C9447020C94470228
S11300300C9447020C9447020C9447020C94470218
S11300400C9447020C9447020C9447020C94470208
S11300500C944702000000000000000000000000B3
S1130060000000000000000000000000000000008C
S1130070000000000000000000000000000000007C
S1130080000000000000000000000000000000006C
S1130090000000000000000000000000000000005C
S11300A0000000000000000000000000000000004C
S11300B0000000000000000000000000000000003C
S11300C0000000000000000000000000000000002C
S11300D0000000000000000000000000000000001C
S11300E0000000000000000000000000000000000C
S11300F0000000000000000000000000000000807C
S11301008080C0C0C0C0C0C08000000000000000EB
S11301100000000000000080C0C0C0C0C0C08080DB
S113012000000000000000000000000000000000CB
S113013000000000000000000000000000000000BB
S113014000000000000000000000000000000000AB
S1130150000000000000000000000000000000009B
S1130160000000000000000000000000000000008B
S113017000000000000000000000000006FFFFFF78
S1130180FFFFFFFFFFFFFFFFFFFFFFFEFEFEFEFE80
S1130190FEFEFEFEFEFFFFFFFFFFFFFFFFFFFFFF70
S11301A0FFFFFF0600000000000000000000000048
S11301B0000000000000000000000000000000003B
S11301C0000000000000000000000000000000002B
S11301D0000000000000000000000000000000001B
S11301E0000000000000000000000000000000000B
S11301F000F0F0F8F8F8F8F8FCFCFEFEFFFFFFFF53
S1130200FFFFFFFFFFFF3F0F0F0703030301010180
S1130210010101030303070F0F3FFFFFFFFFFFFF70
S1130220FFFFFFFFFEFCFCF8F8F8F8F0F0F0000028
S113023000000000000000000000000000000000BA
S113024000000000000000000000000000000000AA
S1130250000000000000000000000000000000009A
S1130260000000000000000000000000000000008A
S11302700003070707070F0F0F1F1F3F7FFFFFFF35
S1130280FFFFFFFFFFFFFEFCF8F0F0E0E0E0E0E03E
S1130290E0E0E0E0E0F0F0F8FCFEFFFFFFFFFFFF2E
S11302A0FFFFFF7F3F1F1F0F0F0F07070707000008
S11302B0000000000000000000000000000000003A
S11302C0000000000000000000000000000000002A
S11302D0000000000000000000000000000000001A
S11302E0000000000000000000000000000000000A
S11302F0000000000000000000000000003D7F7FBF
S11303007FFFFFFFFFFFFFFF7F7F3F3F3F1F1F1F59
S11303101F1F1F3F3F3F7F7FFFFFFFFFFFFFFF7F49
S11303207F3F3D00000000000000000000000000CE
S113033000000000000000000000000000000000B9
S113034000000000000000000000000000000000A9
S11303500000000000000000000000000000000099
S11303600000000000000000000000000000000089
S11303700000000000000000000000000000000079
S11303800000000000000000000000000000000069
S11303900000000000000000000000000000000059
S11303A00000000000000000000000000000000049
S11303B00000000000000000000000000000000039
S11303C00000000000000000000000000000000029
S11303D00000000000000000000000000000000019
S11303E00000000000000000000000000000000009
S11303F00000000000000000000000040E1E1F1F8B
S11304001F1F1F1F1F1F1F1F1F1F1F1F1F1F1F1FF8
S11304101F1F1F1F1F1F1F1F1F1F1F1F1F1F1F1FE8
S11304201F1F1F0E04000000000000000000000059
S113043000000000000000000000000000000000B8
S113044000000000000000000000000000000000A8
S11304500000000011241FBECFE5D8E0DEBFCDBFF1
S113046010E0A0E6B0E0E2E8F6E002C005900D92EC
S1130470A036B107D9F720E0A0E6B0E001C01D9294
S1130480A036B207E1F70E9433030C943F030C94A7
S11304900000939A83E08A95F1F70000939883E033
S11304A08A95F1F700000895959A949885BB000009
S11304B00E9449020895919A929A95989498806C12
S11304C085BB0E9449020895CF93C62F95989498AE
S11304D0803418F4919A929803C09198929A805417
S11304E08F77806485BB0E94490295989498CF7B4E
S11304F0C86BC5BB0E944902CF910895CF93C82F02
S1130500682F80E00E9464026C2F80E40E946402E1
S1130510919AC1E480E00E945402C150D9F7CF916E
S11305200895CF93C0E08C2F0E947E02CF5FC83025
S1130530D1F7CF910895CF93C82F8FEF84BB81B3A8
S11305408F6381BB909A83E08A95F1F70000919ABA
S1130550929A83E08A95F1F70000959894988FE336
S113056085BB0E9449020E9491028C2F0E945B026B
S1130570CF9108952F923F924F925F926F927F9204
S11305808F929F92AF92BF92CF92DF92EF92FF929F
S11305900F931F93CF93DF9300D000D01F92CDB75A
S11305A0DEB75C016983342E842E912C0695069562
S11305B006953401600E711C86149704FCF03BC050
S11305C0632D822D0E946402EC81FD81E01BF10BFE
S11305D0EC0DFD1DEA0DFB1D84910E945402239431
S11305E0822D90E09D838C838E159F054CF333946C
S11305F0832D90E08615970564F01DC0C4013981F0
S1130600032F10E0422E512C7801E40CF51C3A83A0
S11306101B830E151F055CF788199909849D6001D9
S1130620859DD00C949DD00C11248A818C839B8150
S11306309D832980C5CF0F900F900F900F900F903E
S1130640DF91CF911F910F91FF90EF90DF90CF90AA
S1130650BF90AF909F908F907F906F905F904F90DE
S11306603F902F90089580E00E949B0200E420E8D0
S113067040E060E084E590E00E94BA02FFCFF89485
S1050680FFCFA6
S9030000FC
