S010000053544550504552322E73726563BF
S11300000C942A000C943F000C943F000C943F0085
S11300100C943F000C943F000C943F000C943F0060
S11300200C943F000C943F000C943F000C943F0050
S11300300C943F000C943F000C943F000C943F0040
S11300400C943F000C943F000C943F000C943F0030
S11300500C943F0011241FBECFE5D8E0DEBFCDBF16
S113006010E0A0E6B0E0EAEDF0E002C005900D92E9
S1130070A037B107D9F70E9441000C946B000C948F
S11300800000CF93DF93CDB7DEB760970FB6F89437
S1130090DEBF0FBECDBF80E1E0E6F0E0DE011196E9
S11300A001900D928A95E1F78FE084BB9E012F5E4B
S11300B03F4FFE0131968081329685BB4FE38DE040
S11300C093E0415080409040E1F700C00000E21707
S10D00D0F30789F7EECFF894FFCF91
S11300DA02000600040005000100090008000A00E5
S9030000FC
