:100000000C942A000C943F000C943F000C943F0089
:100010000C943F000C943F000C943F000C943F0064
:100020000C943F000C943F000C943F000C943F0054
:100030000C943F000C943F000C943F000C943F0044
:100040000C943F000C943F000C943F000C943F0034
:100050000C943F0011241FBECFE5D8E0DEBFCDBF1A
:1000600010E0A0E6B0E0E2ECF0E002C005900D92F6
:10007000A836B107D9F70E9449000C945F000C9490
:100080000000811102C0A89801C0A89AA99AA99855
:10009000089584B3836084BB15BAC0E6D0E007E658
:1000A00010E089910E94410083EC99E00197F1F7FB
:1000B00000C00000C017D107A1F7A99AFFCFF8949C
:0200C000FFCF70
:0800C200000000000101010033
:00000001FF
