S00F0000736574707065722E7372656312
S11300000C942A000C943F000C943F000C943F0085
S11300100C943F000C943F000C943F000C943F0060
S11300200C943F000C943F000C943F000C943F0050
S11300300C943F000C943F000C943F000C943F0040
S11300400C943F000C943F000C943F000C943F0030
S11300500C943F0011241FBECFE5D8E0DEBFCDBF16
S113006010E0A0E6B0E0E4EDF0E002C005900D92EF
S1130070A836B107D9F70E9441000C9468000C948B
S11300800000CF93DF93CDB7DEB728970FB6F8946F
S1130090DEBF0FBECDBF88E0E0E6F0E0DE011196E2
S11300A001900D928A95E1F78FE084BB9E01275F52
S11300B03F4FFE0131968081329685BB8BE792E9F2
S11300C00197F1F700C00000E217F307A1F7F1CFA1
S10700D0F894FFCFCE
S10B00D4010002000400080011
S9030000FC
