S01700004763634170706C69636174696F6E312E737265635B
S11300000C944D050C946A050C946A050C946A05CD
S11300100C946A050C946A050C946A050C946A05A0
S11300200C946A050C946A050C946A050C946A0590
S11300300C946A050C946A050C946A050C946A0580
S11300400C946A050C946A050C946A050C946A0570
S11300500C946A05DA073E07DC074407460748079D
S11300604A074C074E0750075207520752075207D8
S113007052075207520752075207520752075207B4
S113008052075207520752075207520752075207A4
S11300905207520752075207520752075207520794
S11300A05207520752075207520752075207520784
S11300B05207520752075207520752075207520774
S11300C05207520752075207520752075207520764
S11300D05207520752075207520752075207520754
S11300E05207520752075207520752075207520744
S11300F0520752075207DE075207520752075207A8
S11301005207520752075207520752075207420733
S1130110400752073C07520752075207520752073B
S113012052075207E007C1C1C1C10000C2C2FEFEAE
S11301300100C3C31F1F0100C4C4FCFC0100C5C5EA
S1130140C5C50101C6BDBFBE0101C7C7C0C001000E
S1130150C88284830101C9C9FDFD0100CA8587865F
S11301600101CB888A890101CC8BCC8B0101CD8C18
S1130170CD8C0101CE11CE110101CFCF131301009B
S1130180D0D08F8F0100D1D11B1B0100D2D291910D
S11301900100D39294930101D49597960101D51748
S11301A09A990101D69B9D9C0101D7D7D7D700000E
S11301B0D8D89E9E0101D9D99F9F0101DAA0A2A19E
S11301C00101DBA3A5A40101DCDCDCDC0000DDA66D
S11301D0A8A70101DEA9ABAA0101DFACAEAD010104
S11301E0E0E0E0E00000E1AFB1B00101E2E2E2E210
S11301F00000E3B2B4B30101E4B5B7B60101E5B858
S1130200BAB90101E6E6BCBC0100E7E7E7E7000094
S1130210E8E8E8E80000E9E9E9E90000EAEAEAEAEE
S11302200000EBEBEBEB0000ECBDBFBE0101EDBD4C
S1130230BFBE0101EEEEEEEE0000EFEFEFEF0000C7
S1130240F0F0F0F00000F1F1F1F10000F2F2F2F25E
S11302500000F3F3F3F30000F5F5F5F50000F6F60E
S1130260F6F60000F7F7F7F70000F8F8F8F80000E2
S1130270FBF9FBFA0101BBBBF4F40100811C1E1D58
S1130280010190181A1901019814161501018E8E96
S1130290121201008D108D100101000000000000F9
S11302A0000000000000000000000000000000004A
S11302B0000000000000000000000000000000003A
S11302C0000000000000000000000000000000002A
S11302D0000000000000000000000000000000001A
S11302E0000000000000000000000000000000000A
S11302F000000000000000000000000000000000FA
S113030000000000000000000000000000000000E9
S1130310000000000000000000002020282868B031
S113032060202020282A2830202000808044322485
S11303302020002424243820202020202020242AA7
S11303401100202020242A11202030202020242ABB
S11303501120202030203028281820242221242A6B
S11303601100242221242A11202030242221242A8D
S11303701120008080403020202020202060A060B8
S1130380283020202060B060202000302860A06049
S113039030200004061D2524202000000000000059
S11303A0000000004F0000000000000700070000EC
S11303B0000000147F147F14000000242A7F2A12F6
S11303C000000023130864620000003649552240EF
S11303D000000000050300000000001C2241000092
S11303E000000041221C000000000014083E081414
S11303F000000008083E080800000000281800005B
S11304000000000808080808080000303000000058
S113041000000020100804020000003E5149453E3F
S113042000000000427F4000000000426151494644
S11304300000002141454B310000001814127F10C8
S113044000000000274545453900003C4A49493031
S113045000000001710905030000003649494936CE
S1130460000000064949291E00000000363600003D
S1130470000000005636000000000008142241006D
S11304800000002424242424000000004122140835
S11304900000000201510906000000324979413E82
S11304A00000007E1111117E0000007F4949493689
S11304B00000003E414141220000007F4141221CD6
S11304C00000007F494949410000007F09090901F2
S11304D00000003E4149493A0000007F0808087FB7
S11304E000000000417F41000000002040413F0126
S11304F00000007F081422410000007F404040407B
S11305000000007F020C027F0000007F0408107FBF
S11305100000003E4141413E0000007F09090906F8
S113052000003E4151215E000000007F0919294668
S1130530000000464949493100000001017F0101E2
S11305400000003F4040403F0000001F2040201FAB
S11305500000003F4060403F000000631408146343
S11305600000000708700807000000615149454376
S11305700000007F4141000000000015167C1615A4
S113058000000041417F0000000000040201020459
S11305900000004040404040000000010204000010
S11305A000000020545454780000007F4444443830
S11305B00000003844444400000000384444487FAC
S11305C00000003854545418000000107E11010239
S11305D00000000C5252523E0000007F08040478D0
S11305E000000000447D40000000002040403D0029
S11305F00000007F1028440000000000417F4000FC
S11306000000007C041804780000007C08040478CE
S113061000000038444444380000007C14141408DA
S1130620000000081414187C0000007C080404086E
S11306300000004854545420000000043F4440206B
S11306400000003C4040207C0000001C2040201C96
S11306500000001E2010201E000000221408142296
S1130660000000064848483E0000004464544C44DE
S1130670000000083641000000000000007F000078
S1130680000000413608000000000008082A1C0889
S1130690000000081C2A08080000003C4241423CBB
S11306A0000000302860A060283020202020A020F6
S11306B0283020202020B020202000302820A02016
S11306C030202020202220222830202020223022E6
S11306D02020003028222022302020202022212205
S11306E028302020202231222020003028222122DC
S11306F030202020282828B0202020202828283016
S1130700202000C0A82868B0602000008080443207
S11307100400002425243820202030242221242AE7
S113072011000080804034202020202020382038F0
S11307302018202038203820382060808078203805
S1130740201820202038223922182020382239224B
S11307503820608080782239221830202020242AF2
S11307601100203020302828382060808060302814
S113077028382020302030282A1820302030282AF9
S113078038206080806030282A3820203E30282895
S1130790382020203E30282A3820202020203028CD
S11307A0280020202030282820200040A0B028281D
S11307B020202020202030282A0020202030282A11
S11307C020200040A0B0282A2020202020203028EB
S11307D02A30202030282A302020001820203028D9
S11307E02A3020202020302A28322020302A283283
S11307F02020608080B2A87A202022252525252566
S113080025192020201C2221202030282C2A203F9A
S113081020202020202020201F00202020201F20F6
S11308202020003040403F2020202020202030483D
S1130830483020203048483020208040304848301C
S113084020202020202022201800202020201A20D0
S11308502020304044403020202020202030283ADE
S11308602C18202030283A2C382000181414182072
S113087020200021222428100F0000B0A878202076
S11308802020202020A020A02830202020A030A03C
S1130890202000608080A0501020001E20202020F6
S11308A020200020302828200000000402023A0200
S11308B00201000004063D050400000004B6AD7DFD
S11308C00400000080C0BFA0800004668595A8A82D
S11308D048000000003F0000000000302820A02055
S11308E028300000302A283200000030282220223C
S11308F02830003028222122283000C0A8A828B09F
S1130900202000C0A8A8A830202000C0A8AA283011
S1130910202000002424243800000000242524384A
S113092000000080804030000000000080804034DF
S11309300000608080782038201860808078223918
S113094022186080806030282818608080603028F9
S11309502A18002214081422000020203E302828DF
S1130960180020203E30282A1800000040A0B0289B
S11309702800000040A0B02A2800202020202020A9
S113098020200018202030282A3000608080B2A85F
S11309907A000030282C2A203F000040A9AAA8F0A1
S11309A0000000006080807E00000040AAA9AAF038
S11309B000000000C02030282830000060808880BB
S11309C060000000302828300000000000B0A87843
S11309D000000426252528100F00042222262910B1
S11309E00F0000212224A8D0AFA00070AAA9AA3029
S11309F000000070AAA8AA3000000030404050282F
S1130A0008000030C040D02808000000027902002D
S1130A100000000002780200000000000000000551
S1130A20050500000004030B0606A0A0A0000000BA
S1130A30000000000101010100000021222428100F
S1130A402F20000000000004030300008080808049
S1130A5000000000101054101000000002040204F2
S1130A600200202426252520283020242625352070
S1130A702020086C8A8AA050102004B6AD7D242062
S1130A80202000191415182020200402021A222202
S1130A902120004060504850404011241FBECFE543
S1130AA0D8E0DEBFCDBF10E0A0E6B0E0E2ECFAE1B2
S1130AB002C005900D92A236B107D9F720E0A2E654
S1130AC0B0E001C01D92A536B207E1F70E94A10A69
S1130AD00C945F0D0C9400004423D9F0E82FF92FF7
S1130AE030E090E013C08081869560FD02C08C9355
S1130AF002C080688C939F5F491302C0669590E0A2
S1130B00215089F73F5F3196431719F028E0DF0140
S1130B10EACF0895939A83E08A95F1F700009398B9
S1130B2083E08A95F1F700000895959A949885BB1F
S1130B3000000E948A050895919A929A9598949833
S1130B40806C85BB0E948A050895CF93C62F959823
S1130B509498803418F4919A929803C09198929A38
S1130B6080548F77806485BB0E948A0595989498F9
S1130B70CF7BC86BC5BB0E948A05CF9108952F9285
S1130B803F924F925F926F927F928F929F92AF9219
S1130B90BF92CF92DF92EF92FF920F931F93CF9366
S1130BA0DF93CDB7DEB729970FB6F894DEBF0FBE3B
S1130BB0CDBF182F6C834983322E2DB73EB73987AA
S1130BC02887632C712C8DB79EB7E8E03E9E801970
S1130BD0910911240FB6F8949EBF0FBE8DBF2DB797
S1130BE03EB72F5F3F4F69013E832D83642F8C8175
S1130BF00E94A505812F90E0880F991F880F991FE7
S1130C00880F991FFC01E656FD4F7F019C012E556C
S1130C103D4F590101115AC0F7016491432DC6019A
S1130C200E946C05FFEFEF1AFF0AC60CD71CEA14EA
S1130C30FB0481F7332009F451C02981230D2F834C
S1130C401B821A82432C512C35C00034110521F427
S1130C50698180E40E94A505F70180810E949505C1
S1130C6023940F5F1F4F3210F0CFFFEFCF1ADF0A2C
S1130C70A40CB51C28E0C216D10461F08501212C16
S1130C806C9C70016D9CF00C7C9CF00C1124E80CA5
S1130C90F91CDBCF39813F5F3983632F8C810E943C
S1130CA0A5058A819B8101969B838A839981EF8123
S1130CB09E17A1F0FC81AF2EB12CC12CD12C8D80BC
S1130CC09E802A813B81820E931ED8CFF7016491C6
S1130CD06095432DC6010E946C05A4CF28853985F3
S1130CE00FB6F8943EBF0FBE2DBF29960FB6F894E9
S1130CF0DEBF0FBECDBFDF91CF911F910F91FF904B
S1130D00EF90DF90CF90BF90AF909F908F907F90A7
S1130D106F905F904F903F902F900895CF93C82F7E
S1130D20682F80E00E94A5056C2F80E40E94A50531
S1130D30919AC1E480E00E949505C150D9F7CF9102
S1130D400895CF93C0E08C2F0E948E06CF5FC830E9
S1130D50D1F7CF910895CF93C82F8FEF84BB81B380
S1130D608F6381BB909A83E08A95F1F70000919A92
S1130D70929A83E08A95F1F70000959894988FE30E
S1130D8085BB0E948A050E94A1068C2F0E949C05A7
S1130D90CF91089514BA949A959A803418F4919A3C
S1130DA0929802C09198929A0000939A00009398A6
S1130DB086E08A95F1F700C0939A000083B3939874
S1130DC000009FEF94BB08950F931F93CF93DF937D
S1130DD0D82FC62F042F162F169516951695612F0A
S1130DE00E94A505002319F0013081F01DC08D2F4C
S1130DF00E94CA06C77021E030E002C0220F331FF0
S1130E00CA95E2F72095C22FC8230FC08D2F0E94E8
S1130E10CA06C77021E030E002C0220F331FCA9512
S1130E20E2F7C82FC22B01C0C0E0612F8D2F0E94B2
S1130E30A5058C2F0E949505DF91CF911F910F91ED
S1130E400895AF92BF92CF92DF92EF92FF920F93E9
S1130E501F93CF93DF93C82FD62F142FF02E21305A
S1130E6009F0A3C090E0FC01F097E936F105D0F455
S1130E70E65DFF4F0C94590DCBEFA3C0C2E06AC0EE
S1130E80CDEF9FC0CEEF9DC0C4E064C0C5E062C09A
S1130E90C6E060C0C7E05EC0C8E05CC0C9E05AC03C
S1130EA0CAE058C0C13C08F09BC0A0C090E0815C7F
S1130EB09109FC01EE0FFF1FE80FF91FEE0FFF1F52
S1130EC0E55DFE4FE491EE2309F444C02C2F30E09D
S1130ED0215C3109F901EE0FFF1FE20FF31FEE0F42
S1130EE0FF1FE65DFE4FE491EE23A1F1FC01EE0F3E
S1130EF0FF1FE80FF91FEE0FFF1F80916400E80F3A
S1130F00F11DE95DFE4FC490609162008091630021
S1130F100E94A505D12CC601880F991F880F991F1F
S1130F20880F991F9C0126563D4F5901FC01EE552F
S1130F30FD4F6F01E1104BC0F50184910E949505AE
S1130F40FFEFAF1ABF0AAC14BD04A1F782E080938F
S1130F50640004C010926400C13CC8F08C2F90E07F
S1130F60815C9109FC01EE0FFF1FE80FF91FEE0FE2
S1130F70FF1F80916400E80FF11DEA5DFE4F84912C
S1130F800E2D2F2D412F6D2F0E94BF0507C00E2D52
S1130F902F2D412F6D2F8C2F0E94BF05C093600011
S1130FA0D09363001093620024C00E2D2F2D0E9455
S1130FB0BF051FC0C1E0CECFC3E0CCCFCAEF01C094
S1130FC0CCEF80916000813C08F070CFC3CFF50175
S1130FD0849180950E949505B3CF10926400BECF92
S1130FE080916000813C08F061CFF7CF10926400DB
S1130FF0CECFDF91CF911F910F91FF90EF90DF90B3
S1131000CF90BF90AF900895EF92FF920F931F93EC
S1131010CF93DF93C82F162F90E07C01E40EF11CD0
S11310208E159F056CF4D1E0D20F402F612F8C2FC9
S11310300E94E406CD0F8C2F90E08E159F05ACF333
S1131040DF91CF911F910F91FF90EF900895EF9250
S1131050FF920F931F93CF93DF93182FC62F862FE2
S113106090E07C01E40EF11C8E159F056CF4D1E038
S1131070D20F402F6C2F812F0E94E406CD0F8C2FAE
S113108090E08E159F05ACF3DF91CF911F910F91E6
S1131090FF90EF9008952F923F924F925F926F923C
S11310A07F928F929F92AF92BF92CF92DF92EF92F4
S11310B0FF920F931F93CF93DF93D82FC42F322E19
S11310C0102F2E2C841315C0822F90E0861B9109BB
S11310D0AC0122F444275527481B590B4F5F631575
S11310E008F4362E022D212F632D8D2F0E94270800
S11310F0BEC0261315C0842F90E08D1B9109AC014E
S113110022F444275527481B590B4F5F8D2FCD17C9
S113111008F48C2F022D212F632D0E940408A7C0F0
S1131120481730F4862F622F382E8D2FD42FC82FD6
S1131130A62EB12C8D2E912C632D70E06A197B099B
S1131140072E000C880B990B0E94050C6B017C0187
S11311506C2F70E068197909072E000C880B990B25
S11311600E94050C9B01AC01C701B6010E94620BF1
S11311706B017C01B401990C880B990B0E94050C3E
S1131180A70196010E94910C2B013C01B501BB0CF7
S1131190880B990B0E94050CA30192010E94F50A89
S11311A04B015C019B01AC01C301B2010E94F60A30
S11311B00E94D40B462E772473947D0EC71508F431
S11311C051C05D2E062F672D70E080E090E00E94F4
S11311D0050CA70196010E94910CA50194010E949F
S11311E0F60A20E030E040E05FE30E94F60A0E9445
S11311F0D40B662E462F401B42304CF0415061E028
S1131200600F022D212F852D0E9427080CC0061B7C
S113121002304CF04FEF400F022D212F61E0660D9C
S1131220852D0E942708C7110BC064100BC0022D26
S113123020E04C2F4D1B642D8D2F0E9404080BC001
S1131240641449F0472D4D1B022D20E0642D8D2F91
S11312500E940408D72D73945394462C062DC71569
S113126008F0B1CF422D632D8C2F0E94E406DF914C
S1131270CF911F910F91FF90EF90DF90CF90BF908F
S1131280AF909F908F907F906F905F904F903F9022
S11312902F900895CF92DF92EF92FF920F931F93B6
S11312A0CF93DF93F82ED62FD42EC22F102FC42E17
S11312B0C81A0E2D212F4C2D0E940408212F4C2DCD
S11312C06C2F8F2D0E940408CD1B212F4C2F6D2FC6
S11312D08F2D0E94270841E04C0F212F6D2F8D2D5B
S11312E00E942708DF91CF911F910F91FF90EF90FB
S11312F0DF90CF9008956F927F928F929F92AF92DA
S1131300BF92CF92DF92EF92FF920F931F93CF93EE
S1131310DF93CDB7DEB7B82E762EF42ED22E902ED4
S11313206E2C1989E12E082D0E944A092A2D4C2D74
S1131330662D892D0E944A09262D492D672D8B2D56
S11313400E944B08262D4C2D672D8F2D0E944B0893
S11313502A2D492D6D2D8B2D0E944B082A2D4C2DA5
S11313606D2D8F2D0E944B08DF91CF911F910F910E
S1131370FF90EF90DF90CF90BF90AF909F908F90B1
S11313807F906F9008952F923F924F925F926F9249
S11313907F928F929F92AF92BF92CF92DF92EF9201
S11313A0FF920F931F93CF93DF9300D000D0CDB75C
S11313B0DEB78A83562E242E422E0C83442309F44E
S11313C083C0449F60011124782E7394382E340E08
S11313D0182F642EE12CF12C21E0260F2983EE9C9A
S11313E0C001EF9C900D900D11244601881A990AB2
S11313F0092C000CAA08BB08C501B4010E94050C05
S11314000E94040D0E94D40B6B83B62EB50C4C8144
S11314106B2D812F0E94E406A52C8B81A81A4C8188
S11314206A2D812F0E94E4064C816B2DBB24BA9453
S1131430B70C8B2D0E94E4064C816A2D8B2D0E94E3
S1131440E406862D90E02B81821B9109AC0122F4E5
S113145044275527481B590B4230510564F1A42EEB
S1131460BB806B1408F4B62C8981B80E99249A9425
S1131470910E0C81242D4A2D6B2D892D0E94270855
S11314808B81861508F4862D852C881A0C81242DD1
S11314904A2D682D892D0E9427080C81242D4A2D60
S11314A06B2D872D0E9427080C81242D4A2D682D31
S11314B0872D0E9427089FEFE91AF90A1F5F7A9483
S11314C06B8013118CCF01C04B831A811150120D04
S11314D00C81242D4B81652D812F0E942708F52C2A
S11314E02B81F21A0C81242D4B816F2D812F0E94A8
S11314F027081A811F5F12190C81242D4B81652D39
S1131500812F0E9427080C81242D4B816F2D812F60
S11315100E9427080F900F900F900F90DF91CF91AA
S11315201F910F91FF90EF90DF90CF90BF90AF90FD
S11315309F908F907F906F905F904F903F902F90EF
S1131540089580E00E94AB06E12C01E020E040E039
S113155068E282E40E94210781E08F93812C0F2EA0
S1131560FEE1AF2EF02D0F2EFEE1CF2EF02D0F2E2B
S1131570FAE0EF2EF02D0AE024E144E160E080E09F
S11315800E947B0901E020E04AE064E184E10E94DA
S1131590C3090F90C2E06FEF6C0F42E14C0FEE24D1
S11315A0E39400E0262F8C2F0E944B088FE493ECE9
S11315B00197F1F700C00000CF5FCC3061F781E004
S11315C0C1E0C80F23E1280FEE24E39400E0482F84
S11315D06C2F0E944B088FE493EC0197F1F700C045
S11315E000008C2FCB3061F7FFCF5058BB27AA27C0
S11315F00E940D0B0C94570C0E94490C38F00E9469
S1131600500C20F039F49F3F19F426F40C94460C46
S11316100EF4E095E7FB0C94400CE92F0E94680C53
S113162058F3BA17620773078407950720F079F413
S1131630A6F50C948A0C0EF4E0950B2EBA2FA02D6F
S11316400B01B90190010C01CA01A0011124FF276B
S1131650591B99F0593F50F4503E68F11A16F04066
S1131660A22F232F342F4427585FF3CF4695379565
S11316702795A795F0405395C9F77EF41F16BA0B2A
S1131680620B730B840BBAF09150A1F0FF0FBB1FD8
S1131690661F771F881FC2F70EC0BA0F621F731F21
S11316A0841F48F4879577956795B795F7959E3F7E
S11316B008F0B0CF9395880F08F09927EE0F97950F
S11316C0879508950E94760B0C94570C0E94500C39
S11316D058F00E94490C40F029F45F3F29F00C9423
S11316E0400C51110C948B0C0C94460C0E94680C09
S11316F068F39923B1F3552391F3951B550BBB273D
S1131700AA2762177307840738F09F5F5F4F220F81
S1131710331F441FAA1FA9F335D00E2E3AF0E0E878
S113172032D091505040E695001CCAF72BD0FE2FC2
S113173029D0660F771F881FBB1F26173707480756
S1131740AB07B0E809F0BB0B802DBF01FF2793580E
S11317505F4F3AF09E3F510578F00C94400C0C9486
S11317608B0C5F3FE4F3983ED4F3869577956795A9
S1131770B795F7959F5FC9F7880F911D9695879543
S113178097F90895E1E0660F771F881FBB1F621762
S113179073078407BA0720F0621B730B840BBA0B20
S11317A0EE1F88F7E09508950E94700C88F09F570B
S11317B098F0B92F9927B751B0F0E1F0660F771F71
S11317C0881F991F1AF0BA95C9F714C0B13091F067
S11317D00E948A0CB1E008950C948A0C672F782F2C
S11317E08827B85F39F0B93FCCF38695779567952C
S11317F0B395D9F73EF490958095709561957F4F98
S11318008F4F9F4F0895E89409C097FB3EF490953D
S11318108095709561957F4F8F4F9F4F9923A9F0C5
S1131820F92F96E9BB279395F69587957795679554
S1131830B795F111F8CFFAF4BB0F11F460FF1BC098
S11318406F5F7F4F8F4F9F4F16C0882311F096E92B
S113185011C0772321F09EE8872F762F05C06623D9
S113186071F096E8862F70E060E02AF09A95660F92
S1131870771F881FDAF7880F9695879597F908954B
S113188097F99F6780E870E060E008959FEF80EC2F
S1131890089500240A9416161706180609060895D2
S11318A000240A9412161306140605060895092E38
S11318B00394000C11F4882352F0BB0F40F4BF2BA7
S11318C011F460FF04C06F5F7F4F8F4F9F4F0895E7
S11318D057FD9058440F551F59F05F3F71F04795DD
S11318E0880F97FB991F61F09F3F79F087950895C2
S11318F0121613061406551FF2CF4695F1DF08C0E1
S1131900161617061806991FF1CF869571056105FD
S113191008940895E894BB2766277727CB0197F9A5
S113192008950E94A40C0C94570C0E94490C38F0A2
S11319300E94500C20F0952311F00C94400C0C9450
S1131940460C11240C948B0C0E94680C70F3959F28
S1131950C1F3950F50E0551F629FF001729FBB27A2
S1131960F00DB11D639FAA27F00DB11DAA1F649F3E
S11319706627B00DA11D661F829F2227B00DA11DF1
S1131980621F739FB00DA11D621F839FA00D611D77
S1131990221F749F3327A00D611D231F849F600D98
S11319A0211D822F762F6A2F11249F5750409AF0C1
S11319B0F1F088234AF0EE0FFF1FBB1F661F771F4D
S11319C0881F91505040A9F79E3F510580F00C9418
S11319D0400C0C948B0C5F3FE4F3983ED4F3869553
S11319E077956795B795F795E7959F5FC1F7FE2BB8
S11319F0880F911D9695879597F9089519F416F413
S1131A000C94460C0C94440D0E94700CB8F399236A
S1131A10C9F3B6F39F57550B87FF0E94520D00245C
S1131A20A0E640EA900180585695979528F4805C8A
S1131A30660F771F881F20F026173707480730F4F2
S1131A40621B730B840B202931294A2BA69517940A
S1131A500794202531254A2758F7660F771F881FDA
S1131A6020F026173707480730F4620B730B840BFA
S1131A70200D311D411DA09581F7B901842F915886
S1131A80880F9695879508959F3F31F0915020F4E3
S1131A90879577956795B795880F911D9695879546
S1131AA097F9089591505040660F771F881FD2F719
S1131AB00895EE0FFF1F0590F491E02D0994F8941A
S1051AC0FFCF52
S1051AC2C1005D
S9030000FC
